{
  "address": "0xE8Da149d06b7b4151958fc588e2f71e90ADdf8D8",
  "abi": [
    {
      "inputs": [
        {
          "internalType": "uint256",
          "name": "_lockTime",
          "type": "uint256"
        },
        {
          "internalType": "address",
          "name": "_addr",
          "type": "address"
        }
      ],
      "stateMutability": "nonpayable",
      "type": "constructor"
    },
    {
      "anonymous": false,
      "inputs": [
        {
          "indexed": false,
          "internalType": "uint256",
          "name": "",
          "type": "uint256"
        }
      ],
      "name": "FundWithdDrawByOwner",
      "type": "event"
    },
    {
      "anonymous": false,
      "inputs": [
        {
          "indexed": false,
          "internalType": "address",
          "name": "",
          "type": "address"
        },
        {
          "indexed": false,
          "internalType": "uint256",
          "name": "",
          "type": "uint256"
        }
      ],
      "name": "RefundBalance",
      "type": "event"
    },
    {
      "inputs": [],
      "name": "fund",
      "outputs": [],
      "stateMutability": "payable",
      "type": "function"
    },
    {
      "inputs": [
        {
          "internalType": "address",
          "name": "",
          "type": "address"
        }
      ],
      "name": "fundersToAmount",
      "outputs": [
        {
          "internalType": "uint256",
          "name": "",
          "type": "uint256"
        }
      ],
      "stateMutability": "view",
      "type": "function"
    },
    {
      "inputs": [],
      "name": "getChainlinkDataFeedLatestAnswer",
      "outputs": [
        {
          "internalType": "int256",
          "name": "",
          "type": "int256"
        }
      ],
      "stateMutability": "view",
      "type": "function"
    },
    {
      "inputs": [],
      "name": "getFund",
      "outputs": [],
      "stateMutability": "nonpayable",
      "type": "function"
    },
    {
      "inputs": [],
      "name": "getFundSuccess",
      "outputs": [
        {
          "internalType": "bool",
          "name": "",
          "type": "bool"
        }
      ],
      "stateMutability": "view",
      "type": "function"
    },
    {
      "inputs": [],
      "name": "owner",
      "outputs": [
        {
          "internalType": "address",
          "name": "",
          "type": "address"
        }
      ],
      "stateMutability": "view",
      "type": "function"
    },
    {
      "inputs": [],
      "name": "refund",
      "outputs": [],
      "stateMutability": "nonpayable",
      "type": "function"
    },
    {
      "inputs": [
        {
          "internalType": "address",
          "name": "_erc20Addr",
          "type": "address"
        }
      ],
      "name": "setErc20Addr",
      "outputs": [],
      "stateMutability": "nonpayable",
      "type": "function"
    },
    {
      "inputs": [
        {
          "internalType": "address",
          "name": "funder",
          "type": "address"
        },
        {
          "internalType": "uint256",
          "name": "amountToUpdate",
          "type": "uint256"
        }
      ],
      "name": "setFunderToAmount",
      "outputs": [],
      "stateMutability": "nonpayable",
      "type": "function"
    },
    {
      "inputs": [
        {
          "internalType": "address",
          "name": "newOwner",
          "type": "address"
        }
      ],
      "name": "transferOwnership",
      "outputs": [],
      "stateMutability": "nonpayable",
      "type": "function"
    }
  ],
  "transactionHash": "0x99451fe4ebe241e292c5f24f6e16f8ad63e12514e00c60d84194df9c73826124",
  "args": [
    180,
    "0x694AA1769357215DE4FAC081bf1f309aDC325306"
  ],
  "numDeployments": 1,
  "solcInputHash": "07bc95cb311b7a6e3481f0e1f222bb93",
  "bytecode": "0x60806040526000600560146101000a81548160ff02191690831515021790555034801561002b57600080fd5b5060405161160c38038061160c833981810160405281019061004d919061017d565b80600160006101000a81548173ffffffffffffffffffffffffffffffffffffffff021916908373ffffffffffffffffffffffffffffffffffffffff16021790555033600260006101000a81548173ffffffffffffffffffffffffffffffffffffffff021916908373ffffffffffffffffffffffffffffffffffffffff160217905550426003819055508160048190555050506101bd565b600080fd5b6000819050919050565b6100fc816100e9565b811461010757600080fd5b50565b600081519050610119816100f3565b92915050565b600073ffffffffffffffffffffffffffffffffffffffff82169050919050565b600061014a8261011f565b9050919050565b61015a8161013f565b811461016557600080fd5b50565b60008151905061017781610151565b92915050565b60008060408385031215610194576101936100e4565b5b60006101a28582860161010a565b92505060206101b385828601610168565b9150509250929050565b611440806101cc6000396000f3fe6080604052600436106100915760003560e01c8063b60d428811610059578063b60d428814610155578063bea4dfb51461015f578063d39cf0061461018a578063da4658e0146101b3578063f2fde38b146101de57610091565b806313ffff0114610096578063590e1ae3146100bf5780638da5cb5b146100d65780638edd6eb6146101015780639f883a0514610118575b600080fd5b3480156100a257600080fd5b506100bd60048036038101906100b89190610c0e565b610207565b005b3480156100cb57600080fd5b506100d46102db565b005b3480156100e257600080fd5b506100eb610572565b6040516100f89190610c4a565b60405180910390f35b34801561010d57600080fd5b50610116610598565b005b34801561012457600080fd5b5061013f600480360381019061013a9190610c0e565b61081a565b60405161014c9190610c7e565b60405180910390f35b61015d610832565b005b34801561016b57600080fd5b5061017461091c565b6040516101819190610cb2565b60405180910390f35b34801561019657600080fd5b506101b160048036038101906101ac9190610cf9565b6109bd565b005b3480156101bf57600080fd5b506101c8610a94565b6040516101d59190610d54565b60405180910390f35b3480156101ea57600080fd5b5061020560048036038101906102009190610c0e565b610aa7565b005b600260009054906101000a900473ffffffffffffffffffffffffffffffffffffffff1673ffffffffffffffffffffffffffffffffffffffff163373ffffffffffffffffffffffffffffffffffffffff1614610297576040517f08c379a000000000000000000000000000000000000000000000000000000000815260040161028e90610df2565b60405180910390fd5b80600560006101000a81548173ffffffffffffffffffffffffffffffffffffffff021916908373ffffffffffffffffffffffffffffffffffffffff16021790555050565b6004546003546102eb9190610e41565b42101561032d576040517f08c379a000000000000000000000000000000000000000000000000000000000815260040161032490610ec1565b60405180910390fd5b683635c9adc5dea0000061034047610b7b565b10610380576040517f08c379a000000000000000000000000000000000000000000000000000000000815260040161037790610f2d565b60405180910390fd5b60008060003373ffffffffffffffffffffffffffffffffffffffff1673ffffffffffffffffffffffffffffffffffffffff1681526020019081526020016000205403610401576040517f08c379a00000000000000000000000000000000000000000000000000000000081526004016103f890610f99565b60405180910390fd5b6000806000803373ffffffffffffffffffffffffffffffffffffffff1673ffffffffffffffffffffffffffffffffffffffff1681526020019081526020016000205490503373ffffffffffffffffffffffffffffffffffffffff168160405161046990610fea565b60006040518083038185875af1925050503d80600081146104a6576040519150601f19603f3d011682016040523d82523d6000602084013e6104ab565b606091505b505080925050816104f1576040517f08c379a00000000000000000000000000000000000000000000000000000000081526004016104e89061104b565b60405180910390fd5b60008060003373ffffffffffffffffffffffffffffffffffffffff1673ffffffffffffffffffffffffffffffffffffffff168152602001908152602001600020819055507f9531ed73239aa97853e1bed18bc40c4a9da35b1bcdc674c289b4b445996ea888338260405161056692919061106b565b60405180910390a15050565b600260009054906101000a900473ffffffffffffffffffffffffffffffffffffffff1681565b6004546003546105a89190610e41565b4210156105ea576040517f08c379a00000000000000000000000000000000000000000000000000000000081526004016105e190610ec1565b60405180910390fd5b600260009054906101000a900473ffffffffffffffffffffffffffffffffffffffff1673ffffffffffffffffffffffffffffffffffffffff163373ffffffffffffffffffffffffffffffffffffffff161461067a576040517f08c379a000000000000000000000000000000000000000000000000000000000815260040161067190610df2565b60405180910390fd5b683635c9adc5dea0000061068d47610b7b565b10156106ce576040517f08c379a00000000000000000000000000000000000000000000000000000000081526004016106c5906110e0565b60405180910390fd5b6000804790503373ffffffffffffffffffffffffffffffffffffffff16816040516106f890610fea565b60006040518083038185875af1925050503d8060008114610735576040519150601f19603f3d011682016040523d82523d6000602084013e61073a565b606091505b50508092505081610780576040517f08c379a00000000000000000000000000000000000000000000000000000000081526004016107779061104b565b60405180910390fd5b60008060003373ffffffffffffffffffffffffffffffffffffffff1673ffffffffffffffffffffffffffffffffffffffff168152602001908152602001600020819055506001600560146101000a81548160ff0219169083151502179055507f0d39657111537d371bcbe353b960ba993a4002685d6bdfab970247cb263dd16d8160405161080e9190610c7e565b60405180910390a15050565b60006020528060005260406000206000915090505481565b68056bc75e2d6310000061084534610b7b565b1015610886576040517f08c379a000000000000000000000000000000000000000000000000000000000815260040161087d9061114c565b60405180910390fd5b6004546003546108969190610e41565b42106108d7576040517f08c379a00000000000000000000000000000000000000000000000000000000081526004016108ce906111b8565b60405180910390fd5b346000803373ffffffffffffffffffffffffffffffffffffffff1673ffffffffffffffffffffffffffffffffffffffff16815260200190815260200160002081905550565b600080600160009054906101000a900473ffffffffffffffffffffffffffffffffffffffff1673ffffffffffffffffffffffffffffffffffffffff1663feaf968c6040518163ffffffff1660e01b815260040160a060405180830381865afa15801561098c573d6000803e3d6000fd5b505050506040513d601f19601f820116820180604052508101906109b0919061125b565b5050509150508091505090565b600560009054906101000a900473ffffffffffffffffffffffffffffffffffffffff1673ffffffffffffffffffffffffffffffffffffffff163373ffffffffffffffffffffffffffffffffffffffff1614610a4d576040517f08c379a0000000000000000000000000000000000000000000000000000000008152600401610a4490611348565b60405180910390fd5b806000808473ffffffffffffffffffffffffffffffffffffffff1673ffffffffffffffffffffffffffffffffffffffff168152602001908152602001600020819055505050565b600560149054906101000a900460ff1681565b600260009054906101000a900473ffffffffffffffffffffffffffffffffffffffff1673ffffffffffffffffffffffffffffffffffffffff163373ffffffffffffffffffffffffffffffffffffffff1614610b37576040517f08c379a0000000000000000000000000000000000000000000000000000000008152600401610b2e90610df2565b60405180910390fd5b80600260006101000a81548173ffffffffffffffffffffffffffffffffffffffff021916908373ffffffffffffffffffffffffffffffffffffffff16021790555050565b600080610b8661091c565b90506305f5e1008184610b999190611368565b610ba391906113d9565b915050919050565b600080fd5b600073ffffffffffffffffffffffffffffffffffffffff82169050919050565b6000610bdb82610bb0565b9050919050565b610beb81610bd0565b8114610bf657600080fd5b50565b600081359050610c0881610be2565b92915050565b600060208284031215610c2457610c23610bab565b5b6000610c3284828501610bf9565b91505092915050565b610c4481610bd0565b82525050565b6000602082019050610c5f6000830184610c3b565b92915050565b6000819050919050565b610c7881610c65565b82525050565b6000602082019050610c936000830184610c6f565b92915050565b6000819050919050565b610cac81610c99565b82525050565b6000602082019050610cc76000830184610ca3565b92915050565b610cd681610c65565b8114610ce157600080fd5b50565b600081359050610cf381610ccd565b92915050565b60008060408385031215610d1057610d0f610bab565b5b6000610d1e85828601610bf9565b9250506020610d2f85828601610ce4565b9150509250929050565b60008115159050919050565b610d4e81610d39565b82525050565b6000602082019050610d696000830184610d45565b92915050565b600082825260208201905092915050565b7f746869732066756e6374696f6e2063616e206f6e6c792062652063616c6c656460008201527f206279206f776e65720000000000000000000000000000000000000000000000602082015250565b6000610ddc602983610d6f565b9150610de782610d80565b604082019050919050565b60006020820190508181036000830152610e0b81610dcf565b9050919050565b7f4e487b7100000000000000000000000000000000000000000000000000000000600052601160045260246000fd5b6000610e4c82610c65565b9150610e5783610c65565b9250828201905080821115610e6f57610e6e610e12565b5b92915050565b7f77696e646f77206973206e6f7420636c6f736564000000000000000000000000600082015250565b6000610eab601483610d6f565b9150610eb682610e75565b602082019050919050565b60006020820190508181036000830152610eda81610e9e565b9050919050565b7f5461726765742069732072656163686564000000000000000000000000000000600082015250565b6000610f17601183610d6f565b9150610f2282610ee1565b602082019050919050565b60006020820190508181036000830152610f4681610f0a565b9050919050565b7f7468657265206973206e6f2066756e6420666f7220796f750000000000000000600082015250565b6000610f83601883610d6f565b9150610f8e82610f4d565b602082019050919050565b60006020820190508181036000830152610fb281610f76565b9050919050565b600081905092915050565b50565b6000610fd4600083610fb9565b9150610fdf82610fc4565b600082019050919050565b6000610ff582610fc7565b9150819050919050565b7f7472616e73666572207478206661696c65640000000000000000000000000000600082015250565b6000611035601283610d6f565b915061104082610fff565b602082019050919050565b6000602082019050818103600083015261106481611028565b9050919050565b60006040820190506110806000830185610c3b565b61108d6020830184610c6f565b9392505050565b7f546172676574206973206e6f7420726561636865640000000000000000000000600082015250565b60006110ca601583610d6f565b91506110d582611094565b602082019050919050565b600060208201905081810360008301526110f9816110bd565b9050919050565b7f53656e64206d6f72652045544800000000000000000000000000000000000000600082015250565b6000611136600d83610d6f565b915061114182611100565b602082019050919050565b6000602082019050818103600083015261116581611129565b9050919050565b7f77696e646f7720697320636c6f73656400000000000000000000000000000000600082015250565b60006111a2601083610d6f565b91506111ad8261116c565b602082019050919050565b600060208201905081810360008301526111d181611195565b9050919050565b600069ffffffffffffffffffff82169050919050565b6111f7816111d8565b811461120257600080fd5b50565b600081519050611214816111ee565b92915050565b61122381610c99565b811461122e57600080fd5b50565b6000815190506112408161121a565b92915050565b60008151905061125581610ccd565b92915050565b600080600080600060a0868803121561127757611276610bab565b5b600061128588828901611205565b955050602061129688828901611231565b94505060406112a788828901611246565b93505060606112b888828901611246565b92505060806112c988828901611205565b9150509295509295909350565b7f796f7520646f206e6f742068617665207065726d697373696f6e20746f20636160008201527f6c6c20746869732066756e74696f6e0000000000000000000000000000000000602082015250565b6000611332602f83610d6f565b915061133d826112d6565b604082019050919050565b6000602082019050818103600083015261136181611325565b9050919050565b600061137382610c65565b915061137e83610c65565b925082820261138c81610c65565b915082820484148315176113a3576113a2610e12565b5b5092915050565b7f4e487b7100000000000000000000000000000000000000000000000000000000600052601260045260246000fd5b60006113e482610c65565b91506113ef83610c65565b9250826113ff576113fe6113aa565b5b82820490509291505056fea26469706673582212200cbb68a60cdd2d6d76e43e35d295406d1a3191326972846a74dc728e03794beb64736f6c634300081c0033",
  "devdoc": {
    "kind": "dev",
    "methods": {},
    "version": 1
  },
  "userdoc": {
    "kind": "user",
    "methods": {},
    "version": 1
  },
  "storageLayout": {
    "storage": [
      {
        "astId": 318,
        "contract": "contracts/FundMe.sol:FundMe",
        "label": "fundersToAmount",
        "offset": 0,
        "slot": "0",
        "type": "t_mapping(t_address,t_uint256)"
      },
      {
        "astId": 328,
        "contract": "contracts/FundMe.sol:FundMe",
        "label": "dataFeed",
        "offset": 0,
        "slot": "1",
        "type": "t_contract(AggregatorV3Interface)104"
      },
      {
        "astId": 337,
        "contract": "contracts/FundMe.sol:FundMe",
        "label": "owner",
        "offset": 0,
        "slot": "2",
        "type": "t_address"
      },
      {
        "astId": 339,
        "contract": "contracts/FundMe.sol:FundMe",
        "label": "deploymentTimestamp",
        "offset": 0,
        "slot": "3",
        "type": "t_uint256"
      },
      {
        "astId": 341,
        "contract": "contracts/FundMe.sol:FundMe",
        "label": "lockTime",
        "offset": 0,
        "slot": "4",
        "type": "t_uint256"
      },
      {
        "astId": 343,
        "contract": "contracts/FundMe.sol:FundMe",
        "label": "erc20Addr",
        "offset": 0,
        "slot": "5",
        "type": "t_address"
      },
      {
        "astId": 346,
        "contract": "contracts/FundMe.sol:FundMe",
        "label": "getFundSuccess",
        "offset": 20,
        "slot": "5",
        "type": "t_bool"
      }
    ],
    "types": {
      "t_address": {
        "encoding": "inplace",
        "label": "address",
        "numberOfBytes": "20"
      },
      "t_bool": {
        "encoding": "inplace",
        "label": "bool",
        "numberOfBytes": "1"
      },
      "t_contract(AggregatorV3Interface)104": {
        "encoding": "inplace",
        "label": "contract AggregatorV3Interface",
        "numberOfBytes": "20"
      },
      "t_mapping(t_address,t_uint256)": {
        "encoding": "mapping",
        "key": "t_address",
        "label": "mapping(address => uint256)",
        "numberOfBytes": "32",
        "value": "t_uint256"
      },
      "t_uint256": {
        "encoding": "inplace",
        "label": "uint256",
        "numberOfBytes": "32"
      }
    }
  }
}